{
  "_format": "hh-sol-artifact-1",
  "contractName": "SaleFixed",
  "sourceName": "contracts/SaleFixed.sol",
  "abi": [
    {
      "inputs": [
        {
          "internalType": "string",
          "name": "_name",
          "type": "string"
        }
      ],
      "stateMutability": "nonpayable",
      "type": "constructor"
    },
    {
      "inputs": [
        {
          "internalType": "address",
          "name": "owner",
          "type": "address"
        }
      ],
      "name": "OwnableInvalidOwner",
      "type": "error"
    },
    {
      "inputs": [
        {
          "internalType": "address",
          "name": "account",
          "type": "address"
        }
      ],
      "name": "OwnableUnauthorizedAccount",
      "type": "error"
    },
    {
      "anonymous": false,
      "inputs": [
        {
          "indexed": true,
          "internalType": "address",
          "name": "previousOwner",
          "type": "address"
        },
        {
          "indexed": true,
          "internalType": "address",
          "name": "newOwner",
          "type": "address"
        }
      ],
      "name": "OwnershipTransferred",
      "type": "event"
    },
    {
      "inputs": [],
      "name": "owner",
      "outputs": [
        {
          "internalType": "address",
          "name": "",
          "type": "address"
        }
      ],
      "stateMutability": "view",
      "type": "function"
    },
    {
      "inputs": [],
      "name": "renounceOwnership",
      "outputs": [],
      "stateMutability": "nonpayable",
      "type": "function"
    },
    {
      "inputs": [],
      "name": "saleName",
      "outputs": [
        {
          "internalType": "string",
          "name": "",
          "type": "string"
        }
      ],
      "stateMutability": "view",
      "type": "function"
    },
    {
      "inputs": [
        {
          "internalType": "address",
          "name": "newOwner",
          "type": "address"
        }
      ],
      "name": "transferOwnership",
      "outputs": [],
      "stateMutability": "nonpayable",
      "type": "function"
    }
  ],
  "bytecode": "0x608060405234801561001057600080fd5b506040516105f23803806105f283398101604081905261002f916100d8565b338061005557604051631e4fbdf760e01b81526000600482015260240160405180910390fd5b61005e81610072565b50600161006b828261022c565b50506102eb565b600080546001600160a01b038381166001600160a01b0319831681178455604051919092169283917f8be0079c531659141344cd1fd0a4f28419497f9722a3daafe3b4186f6b6457e09190a35050565b634e487b7160e01b600052604160045260246000fd5b600060208083850312156100eb57600080fd5b82516001600160401b038082111561010257600080fd5b818501915085601f83011261011657600080fd5b815181811115610128576101286100c2565b604051601f8201601f19908116603f01168101908382118183101715610150576101506100c2565b81604052828152888684870101111561016857600080fd5b600093505b8284101561018a578484018601518185018701529285019261016d565b600086848301015280965050505050505092915050565b600181811c908216806101b557607f821691505b6020821081036101d557634e487b7160e01b600052602260045260246000fd5b50919050565b601f821115610227576000816000526020600020601f850160051c810160208610156102045750805b601f850160051c820191505b8181101561022357828155600101610210565b5050505b505050565b81516001600160401b03811115610245576102456100c2565b6102598161025384546101a1565b846101db565b602080601f83116001811461028e57600084156102765750858301515b600019600386901b1c1916600185901b178555610223565b600085815260208120601f198616915b828110156102bd5788860151825594840194600190910190840161029e565b50858210156102db5787850151600019600388901b60f8161c191681555b5050505050600190811b01905550565b6102f8806102fa6000396000f3fe608060405234801561001057600080fd5b506004361061004c5760003560e01c8063715018a6146100515780638adf55651461005b5780638da5cb5b14610079578063f2fde38b14610094575b600080fd5b6100596100a7565b005b6100636100bb565b6040516100709190610209565b60405180910390f35b6000546040516001600160a01b039091168152602001610070565b6100596100a2366004610258565b610149565b6100af61018c565b6100b960006101b9565b565b600180546100c890610288565b80601f01602080910402602001604051908101604052809291908181526020018280546100f490610288565b80156101415780601f1061011657610100808354040283529160200191610141565b820191906000526020600020905b81548152906001019060200180831161012457829003601f168201915b505050505081565b61015161018c565b6001600160a01b03811661018057604051631e4fbdf760e01b8152600060048201526024015b60405180910390fd5b610189816101b9565b50565b6000546001600160a01b031633146100b95760405163118cdaa760e01b8152336004820152602401610177565b600080546001600160a01b038381166001600160a01b0319831681178455604051919092169283917f8be0079c531659141344cd1fd0a4f28419497f9722a3daafe3b4186f6b6457e09190a35050565b60006020808352835180602085015260005b818110156102375785810183015185820160400152820161021b565b506000604082860101526040601f19601f8301168501019250505092915050565b60006020828403121561026a57600080fd5b81356001600160a01b038116811461028157600080fd5b9392505050565b600181811c9082168061029c57607f821691505b6020821081036102bc57634e487b7160e01b600052602260045260246000fd5b5091905056fea2646970667358221220064af0a5530b9c38eb78568c7f371f19b015d266592aead93a438551bf2fa90c64736f6c63430008180033",
  "linkReferences": {},
  "deployedLinkReferences": {}
}